:100000000C9434000C943E000C943E000C943E0082
:100010000C943E000C943E000C943E000C943E0068
:100020000C943E000C943E000C943E000C943E0058
:100030000C943E000C943E000C943E000C943E0048
:100040000C943E000C943E000C943E000C943E0038
:100050000C943E000C943E000C943E000C943E0028
:100060000C943E000C943E0011241FBECFEFD8E04C
:10007000DEBFCDBF0E944E000C94A6000C94000081
:1000800086BD14BC85E085BDA89BFECF15BC81E074
:1000900085BB98B180E2892788B908958FE784B934
:1000A0001AB880E287B98FEF88B98BB985B9C6ECE9
:1000B0006894DD24D7F80F2EF8E8EF2EF02D0F2EE0
:1000C000F2E8FF2EF02D0EE816E8D0EC489906C0B5
:1000D000C5B981EF90E00E944000F8CF499906C071
:1000E000D5B983EF90E00E944000F0CF4A9906C056
:1000F00015B984EF90E00E944000E8CF4B9906C00C
:1001000005B985EF90E00E944000E0CF4C9906C011
:10011000F5B886EF90E00E944000D8CF4D9906C018
:10012000E5B887EF90E00E944000D0CF4E9906C01E
:10013000D5B888EF90E00E944000C8CF1F99C6CF85
:10014000C5B989EF90E00E944000C0CFF894FFCF7E
:00000001FF
