:020000020000FC
:100000004FEF4AB9F0E0F4B950E8152E69EF262E0B
:1000100078E4372E80E6482E91E3592EA4E26A2E2A
:10002000B4E07B2EC2EB8C2ED0E09D2EE0E2AE2E13
:10003000E1E0D2E07FEF0E942D007A9571E0989583
:100040000E9422005FEFE5B91BB80E943900D5B9C4
:100050001BB80E9439005A95A9F76FEFE5B92BB884
:100060000E943900D5B91BB80E9439006A9561E039
:1000700098951CE02FEF3FEF2A95E9F71A95D1F7F5
:1000800008951FEF2FEF3FEF3A95F1F72A95D9F733
:060090001A95C1F7089566
:00000001FF
