S01B00004C616230375F47726F757031385F62617369632E737265635D
S11300000C9434000C9449000C9449000C9449005D
S11300100C9449000C9449000C9449000C94490038
S11300200C9449000C9449000C9449000C94490028
S11300300C9449000C9449000C9449000C94490018
S11300400C9449000C9449000C9449000C94490008
S11300500C9449000C9449000C9449000C944900F8
S11300600C9449000C94490011241FBECFEFD8E032
S1130070DEBFCDBF11E0A0E0B1E0E4EDF0E002C0EE
S113008005900D92A431B107D9F70E944B000C944E
S113009068000C940000E1E6F0E080E8808383E0EF
S11300A080838FEF84B917B88AB9A0E0B0E0FD016E
S11300B0E050FF4FA65FBE4F2AE031E081918BB93B
S11300C08D9185B9E217F307C9F780E090E00895B0
S10700D0F894FFCFCE
S11300D401CD2484C89010C500800167124264488D
S10700E40863004069
S9030000FC
