:100000000C9434000C9449000C9449000C94490061
:100010000C9449000C9449000C9449000C9449003C
:100020000C9449000C9449000C9449000C9449002C
:100030000C9449000C9449000C9449000C9449001C
:100040000C9449000C9449000C9449000C9449000C
:100050000C9449000C9449000C9449000C944900FC
:100060000C9449000C94490011241FBECFEFD8E036
:10007000DEBFCDBF11E0A0E0B1E0EEE3F1E002C0F1
:1000800005900D92A031B107D9F70E944B000C9456
:100090009D000C940000CF93DF93CDB7DEB760973F
:1000A0000FB6F894DEBF0FBECDBF8FEF84B99FE0CF
:1000B0009AB985B980E1E0E0F1E0DE0111960190A6
:1000C0000D928A95E1F761E070E08E010F5F1F4F9E
:1000D000A0E0B0E0CB010A2E02C0880F991F0A945D
:1000E000E2F780958BB9F80124E030E089B190E027
:1000F00080959095AB01022E02C0440F551F0A94C3
:10010000E2F784239523892B59F0808185B94FE349
:100110008DE093E0415080409040E1F700C0000046
:100120002F5F3F4F31962830310501F711960C5F54
:0E0130001F4FA430B10571F6C8CFF894FFCF71
:10013E007819F94000122408100230004640060ECD
:00000001FF
