S01A00006C6162365F626F6E75735F47726F757031382E737265634A
S11300000C9434000C9449000C9449000C9449005D
S11300100C9449000C9449000C9449000C94490038
S11300200C9449000C9449000C9449000C94490028
S11300300C9449000C9449000C9449000C94490018
S11300400C9449000C9449000C9449000C94490008
S11300500C9449000C9449000C9449000C944900F8
S11300600C9449000C94490011241FBECFEFD8E032
S1130070DEBFCDBF11E0A0E0B1E0E0E3F2E002C0FA
S113008005900D92A439B107D9F70E9459000C9438
S113009016010C94000086BD14BC85E085BDA89BA8
S11300A0FECF15BC81E085BB98B180E2892788B971
S11300B008956F927F928F929F92AF92BF92CF9248
S11300C0DF92EF92FF920F931F93CF93DF938FE70B
S11300D084B91AB880E287B98FEF88B985B989EFF6
S11300E090E00197F1F700C0000001E010E0E12C7E
S11300F0F12CC0E0D0E0DD24DA940F2EF6ECCF2E04
S1130100F02D0F2EF8E86F2EF02D0F2EF2E87F2E33
S1130110F02D0F2EFEE88F2EF02D0F2EF6E89F2ED9
S1130120F02D0F2EF0ECAF2EF02D64C089EF90E08F
S11301300197F1F700C000000F5F1F4F0739110549
S113014064F0F701EE0FFF1FE050FF4FC081D18133
S1130150C70101967C0100E010E09CE4E916F1047B
S11301600CF053C0C130D10531F4C5B881EF90E033
S11301700E944B00DBCFC230D10531F4A5B883EF28
S113018090E00E944B00D2CFC330D10531F495B832
S113019084EF90E00E944B00C9CFC430D10531F404
S11301A085B885EF90E00E944B00C0CFC530D105E3
S11301B031F475B886EF90E00E944B00B7CFC6309B
S11301C0D10531F465B887EF90E00E944B00AECFC3
S11301D0C730D10531F4B5B888EF90E00E944B00E8
S11301E0A5CFC830D10531F4C5B889EF90E00E949D
S11301F04B009CCFD5B887EE93E00197F1F700C090
S113020000006894BB24B7F891CF80E090E0DF91C0
S1130210CF911F910F91FF90EF90DF90CF90BF90FF
S1130220AF909F908F907F906F900895F894FFCF38
S113023001000000010002000200020001000100B0
S11302400100040004000400030003000300030091
S1130250030003000100000001000200020002008C
S11302600100010001000500050005000400040070
S11302700400040004000400010000000100080060
S1130280080008000600060006000400040004003C
S11302900300030003000200020002000200020047
S11302A00700000007000600060006000400040022
S11302B00400050005000500040004000400040017
S10702C0040004002E
S9030000FC
