S01700004763634170706C69636174696F6E322E737265635A
S11300000C9434000C943E000C943E000C943E007E
S11300100C943E000C943E000C943E000C943E0064
S11300200C943E000C943E000C943E000C943E0054
S11300300C943E000C943E000C943E000C943E0044
S11300400C943E000C943E000C943E000C943E0034
S11300500C943E000C943E000C943E000C943E0024
S11300600C943E000C943E0011241FBECFEFD8E048
S1130070DEBFCDBF0E9440000C9466000C940000CB
S11300808FEF84B91AB817B888B98BB985B979EFE5
S113009062E951E949EC35E824E891EF81E0E0E2D6
S11300A0489B75B9499B65B94A9B55B94B9B45B962
S11300B04C9B35B94D9B25B94E9B95B9339B15B8CF
S11300C0349B85B93599ECCFE5B9EACFF894FFCFE5
S9030000FC
